:100000000C942A000C9447000C9447000C94470071
:100010000C9447000C9447000C9447000C94470044
:100020000C9447000C9447000C9447000C94470034
:100030000C9447000C9447000C9447000C94470024
:100040000C9447000C9447000C9447000C94470014
:100050000C94470011241FBECFE5D8E0DEBFCDBF12
:1000600010E0A0E6B0E0EAE2F8E002C005900D92F0
:10007000AA36B107D9F710E0AAE6B0E001C01D9298
:10008000AB36B107E1F70E94EF030C9413040C9414
:10009000000085E58ABB85E087BB14BA11BA80E011
:1000A0000895382F8830C8F4662359F02AB381E0C8
:1000B00090E002C0880F991F3A95E2F7282B2ABBDF
:1000C00057C02AB381E090E002C0880F991F3A958B
:1000D000E2F7809582238ABB4BC0482F48504830B6
:1000E000C8F4662359F027B381E090E002C0880F7E
:1000F000991F4A95E2F7282B27BB3AC027B381E026
:1001000090E002C0880F991F4A95E2F780958223FC
:1001100087BB2EC0482F40514830C8F4662359F0A1
:1001200024B381E090E002C0880F991F4A95E2F75E
:10013000282B24BB1DC024B381E090E002C0880FAF
:10014000991F4A95E2F78095822384BB11C03851EC
:10015000373010F083E00895662361F021B381E029
:1001600090E002C0880F991F3A95E2F7282B21BB37
:1001700080E0089521B381E090E002C0880F991FCC
:100180003A95E2F78095822381BB80E00895382F6D
:100190008830C8F4662359F02BB381E090E002C0A8
:1001A000880F991F3A95E2F7282B2BBB57C02BB32A
:1001B00081E090E002C0880F991F3A95E2F78095A0
:1001C00082238BBB4BC0482F48504830C8F466236D
:1001D00059F028B381E090E002C0880F991F4A953A
:1001E000E2F7282B28BB3AC028B381E090E002C098
:1001F000880F991F4A95E2F78095822388BB2EC00D
:10020000482F40514830C8F4662359F025B381E0A7
:1002100090E002C0880F991F4A95E2F7282B25BB72
:100220001DC025B381E090E002C0880F991F4A9558
:10023000E2F78095822385BB11C03851373010F02A
:1002400083E00895662361F022B381E090E002C06C
:10025000880F991F3A95E2F7282B22BB80E008957A
:1002600022B381E090E002C0880F991F3A95E2F72F
:100270008095822382BB80E00895382F883058F41F
:100280002BB381E090E002C0880F991F3A95E2F706
:1002900028272BBB1DC0482F4850483058F428B39E
:1002A00081E090E002C0880F991F4A95E2F7282765
:1002B00028BB0EC0482F4051483060F425B381E080
:1002C00090E002C0880F991F4A95E2F7282725BBC6
:1002D00080E008953851373010F083E0089522B35C
:1002E00081E090E002C0880F991F3A95E2F7282735
:1002F00022BB80E00895282FFB01883040F489B3A9
:1003000090E002C0959587952A95E2F711C0382FA5
:100310003850383010F486B305C0382F305138309B
:1003200058F483B390E002C0959587953A95E2F72B
:100330008170808380E008952851273010F083E099
:10034000089580B390E002C0959587952A95E2F7CD
:100350008170808380E00895683008F063C0423087
:1003600008F060C08130F1F0813038F0823079F1EE
:10037000833009F441C082E008958AB321E030E07F
:10038000062E02C0220F331F0A94E2F7209528237D
:10039000842F90E002C0880F991F6A95E2F7282BFE
:1003A0002ABB3EC087B321E030E0062E02C0220FF8
:1003B000331F0A94E2F720952823842F90E002C08F
:1003C000880F991F6A95E2F7282B27BB29C084B3B1
:1003D00021E030E0062E02C0220F331F0A94E2F71C
:1003E00020952823842F90E002C0880F991F6A95DA
:1003F000E2F7282B24BB14C081B321E030E0062EA5
:1004000002C0220F331F0A94E2F720952823842F7D
:1004100090E002C0880F991F6A95E2F7282B21BB54
:1004200080E0089583E00895683008F063C04230AA
:1004300008F060C08130F1F0813038F0823079F11D
:10044000833009F441C082E008958BB321E030E0AD
:10045000062E02C0220F331F0A94E2F720952823AC
:10046000842F90E002C0880F991F6A95E2F7282B2D
:100470002BBB3EC088B321E030E0062E02C0220F25
:10048000331F0A94E2F720952823842F90E002C0BE
:10049000880F991F6A95E2F7282B28BB29C085B3DE
:1004A00021E030E0062E02C0220F331F0A94E2F74B
:1004B00020952823842F90E002C0880F991F6A9509
:1004C000E2F7282B25BB14C082B321E030E0062ED2
:1004D00002C0220F331F0A94E2F720952823842FAD
:1004E00090E002C0880F991F6A95E2F7282B22BB83
:1004F00080E0089583E00895683010F083E0089567
:10050000813099F0813030F08230D1F0833021F1A8
:1005100082E008952BB381E090E002C0880F991F1C
:100520006A95E2F728272BBB15C028B381E090E03D
:1005300002C0880F991F6A95E2F7282728BB0AC0D6
:1005400025B381E090E002C0880F991F6A95E2F719
:10055000282725BB80E0089522B381E090E002C007
:10056000880F991F6A95E2F7282722BB80E008953B
:10057000FA01683010F083E00895813051F0813045
:1005800030F0823041F0833089F082E0089589B301
:1005900003C086B301C083B390E002C095958795F0
:1005A0006A95E2F78170808380E0089580B390E0DF
:1005B00002C0959587956A95E2F78170808380E007
:1005C0000895813051F0813030F0823041F0833035
:1005D00049F082E008956ABB03C067BB01C064BBF9
:1005E00080E0089561BB80E00895813051F0813052
:1005F00030F0823041F0833049F082E008956BBBE7
:1006000003C068BB01C065BB80E0089562BB80E0A9
:100610000895813061F0813030F0823061F08330B4
:1006200079F082E008958BB380958BBB07C088B3C7
:10063000809588BB03C085B3809585BB80E0089515
:1006400082B3809582BB80E00895FB01813051F038
:10065000813030F0823041F0833051F082E00895F3
:1006600089B303C086B301C083B3808380E008955B
:1006700080B3808380E0089580E060E040E00E94E5
:10068000140280E061E040E00E94140280E062E039
:1006900040E00E94140280E063E040E00E94140207
:1006A00080E064E040E00E94140280E065E040E009
:1006B0000E94140280E066E040E00E94140280E0A4
:1006C000089580E067E041E00E94140280E0089510
:1006D00080E067E040E00E94140280E008950F93FC
:1006E0001F9300E610E0080F111DF80140814170D2
:1006F00080E060E00E941402F801408150E05695CD
:100700004795417080E061E00E941402F801408149
:1007100050E05695479556954795417080E062E0C8
:100720000E941402F801408150E033E0569547954D
:100730003A95E1F7417080E063E00E941402F8010D
:10074000408150E024E0569547952A95E1F74170A5
:1007500080E064E00E941402F801408150E095E0DE
:10076000569547959A95E1F7417080E065E00E94C3
:100770001402F801408150E086E0569547958A952D
:10078000E1F7417080E066E00E94140280E01F9172
:100790000F91089580E060E041E00E94AC0180E0AC
:1007A00061E041E00E94AC0180E062E041E00E9433
:1007B000AC0180E063E041E00E94AC0180E064E0D5
:1007C00041E00E94AC0180E065E041E00E94AC01A4
:1007D00080E066E041E00E94AC0180E00895CF93A4
:1007E000DF930E94CA03C8ECD0E089E00E946F0347
:1007F00080E197E2FE013197F1F70197D9F785E0A3
:100800000E946F0380E197E2FE013197F1F70197B3
:10081000D9F70E943C0380E197E2FE013197F1F79E
:0A0820000197D9F7E2CFF894FFCF5B
:0A082A003F065B4F666D7D077F6F90
:00000001FF
